S01C000030325F45696E676162654D6974506F6C6C696E672E737265639D
S11300000C9434000C943E000C943E000C943E007E
S11300100C943E000C943E000C943E000C943E0064
S11300200C943E000C943E000C943E000C943E0054
S11300300C943E000C943E000C943E000C943E0044
S11300400C943E000C943E000C943E000C943E0034
S11300500C943E000C943E000C943E000C943E0024
S11300600C943E000C943E0011241FBECFEFD8E048
S1130070DEBFCDBF0E9446000C944F000C940000DC
S1130080259A1AB88FEF8BB92D9A08950E944000D3
S11300908FEF4A9B85B94B99FCCF15B8FACFF894EA
S10500A0FFCF8C
S9030000FC
