S00E000030355F50574D2E737265635E
S11300000C9434000C9440000C944E000C943E006C
S11300100C943E000C943E000C943E000C943E0064
S11300200C943E000C943E000C943E000C943E0054
S11300300C943E000C943E000C943E000C943E0044
S11300400C943E000C943E000C943E000C943E0034
S11300500C943E000C943E000C943E000C943E0024
S11300600C943E000C943E0011241FBECFEFD8E048
S1130070DEBFCDBF0E945C000C9478000C9400009D
S11300801F920F920FB60F9211248F9380E487BDB5
S11300908F910F900FBE0F901F9018951F920F9283
S11300A00FB60F9211248F9380EC87BD8F910F9020
S11300B00FBE0F901F901895569A52985A9A5398BB
S11300C05B9AE9E6F0E0808181608083E89A808130
S11300D084608083E99A80EC87BD84B5806884BDA0
S11300E084B5896084BD85B5826085BD7894FFCF71
S10700F0F894FFCFAE
S9030000FC
