S01C000030345F54696D65725F756E644672657175656E7A2E737265634E
S11300000C9434000C943E000C943E000C943E007E
S11300100C943E000C943E000C943E000C943E0064
S11300200C943E000C943E000C943E000C943E0054
S11300300C943E000C943E000C9440000C943E0042
S11300400C943E000C943E000C943E000C943E0034
S11300500C943E000C943E000C943E000C943E0024
S11300600C943E000C943E0011241FBECFEFD8E048
S1130070DEBFCDBF0E944F000C9461000C940000C1
S11300801F920F920FB60F9211248F9385B1809512
S113009085B98F910F900FBE0F901F9018958FEF19
S11300A084B915B884B5826084BD86E487BDEEE664
S11300B0F0E0808182608083789485B5846085BD1A
S10900C0FFCFF894FFCF0E
S9030000FC
