S021000030365F53657269656C6C655F5363686E6974747374656C6C652E7372656344
S11300000C9434000C9446000C9446000C94460066
S11300100C9446000C9446000C9446000C94460044
S11300200C9446000C9446000C9446000C94460034
S11300300C9446000C9446000C9446000C94460024
S11300400C9446000C9446000C945C000C944600FE
S11300500C9446000C9446000C9446000C94460004
S11300600C9446000C94460011241FBECFEFD8E038
S1130070DEBFCDBF21E0A0E0B1E001C01D92A531FB
S1130080B207E1F70E9448000C9474000C9400003D
S11300901092C50087E68093C400E1ECF0E0808113
S11300A088618083808180688083E2ECF0E08081D5
S11300B0866080837894FFCF1F920F920FB60F92C1
S11300C011248F93EF93FF93E6ECF0E0808180930B
S11300D00001809100018083FF91EF918F910F9037
S10F00E00FBE0F901F901895F894FFCFEE
S9030000FC
