:100000000C9434000C9440000C944B000C943E0073
:100010000C943E000C943E000C943E000C943E0068
:100020000C943E000C943E000C943E000C943E0058
:100030000C943E000C943E000C943E000C943E0048
:100040000C943E000C943E000C943E000C943E0038
:100050000C943E000C943E000C943E000C943E0028
:100060000C943E000C943E0011241FBECFEFD8E04C
:10007000DEBFCDBF0E9459000C946C000C940000B0
:100080001F920F920FB60F92112415B80F900FBE4A
:100090000F901F9018951F920F920FB60F92112478
:1000A0008F938FEF85B98F910F900FBE0F901F9098
:1000B00018958FEF84B985B952985A9A53985B9ADC
:1000C000E9E6F0E0808181608083808184608083C4
:0C00D000E89AE99A7894FFCFF894FFCFEB
:00000001FF
